:100000000C94FF000C9427010C9427010C942701F9
:100010000C9427010C9427010C9427010C942701C0
:100020000C9427010C9427010C9427010C942701B0
:100030000C9427010C9427010C9427010C942701A0
:100040000C9427010C9427010C9427010C94270190
:100050000C9427010C9427010C9427010C94270180
:100060000C9427010C9427010C9427010C94270170
:100070000C9427010C9427010C9427010C94270160
:100080000C9427010C9427010C9427010C94270150
:100090000C9427010C9427010C9427010C94270140
:1000A0000C9427010C9427010C9427010C94270130
:1000B0000C9427010C9427010C9427010C94270120
:1000C0000C9427010C9427010C9427010C94270110
:1000D0000C9427010C9427010C9427010C94270100
:1000E0000C9427010C9427010C9427010C942701F0
:1000F0000C9427010C9427010C9427010C942701E0
:100100000C9427010C9427010C9427010C942701CF
:100110000C9427010C9427010C9427010C942701BF
:100120000C9427010C9427010C9427010C942701AF
:100130000C9427010C9427010C9427010C9427019F
:100140000C9427010C9427010C9427010C9427018F
:100150000C9427010C9427010C9427010C9427017F
:100160000C9427010C9427010C9427010C9427016F
:100170000C9427010C9427010C9427010C9427015F
:100180000C9427010C9427010C9427010C9427014F
:100190000C9427010C9427010C9427010C9427013F
:1001A0000C9427010C9427010C9427010C9427012F
:1001B0000C9427010C9427010C9427010C9427011F
:1001C0000C9427010C9427010C9427010C9427010F
:1001D0000C9427010C9427010C9427010C942701FF
:1001E0000C9427010C9427010C9427010C942701EF
:1001F0000C9427010C9427010C942701220211244E
:100200001FBECFEFCDBFD7E2DEBF10E2A0E0B0E26D
:10021000E2E6F4E002C005900D92A031B107D9F7F3
:1002200020E2A0E1B0E201C01D92A131B207E1F7E6
:1002300010E0CFEFD0E004C02197FE010E94290218
:10024000CE3FD107C9F70E940F020C942F020C94E5
:1002500000008FEF8093060621E080E8882351F0AC
:10026000922F962311F08093050690E0959587953F
:10027000220FF4CF0895CF93DF93C6E2D6E021E0BA
:1002800028830E94290186E08A95F1F700C082E068
:100290008093250696E09A95F1F700C0888386E062
:1002A0008A95F1F700C0DF91CF910895CF93DF9346
:1002B000EC018FEF80930006809320068FE493EC8F
:1002C0000197F1F700C0000068E3CE010E943B01F6
:1002D00083EC99E00197F1F700C0000068E3CE01DC
:1002E0000E943B0199E49A95F1F7000068E3CE0182
:1002F0000E943B0181E28A95F1F7000068E3CE019C
:100300000E943B0191E29A95F1F7000068E0CE016E
:100310000E943B0181E28A95F1F7000061E0CE0185
:100320000E943B0187EE93E00197F1F700C00000C7
:1003300066E0CE010E943B0191E29A95F1F7000040
:1003400062E0CE010E943B0187EE93E00197F1F756
:1003500000C000006FE0CE010E943B0191E29A953F
:10036000F1F70000DF91CF910895CF93DF93C5E2BD
:10037000D6E021E028830E94290186E08A95F1F7E2
:1003800000C082E0888396E09A95F1F700C08093E0
:10039000260686E08A95F1F700C0DF91CF91089597
:1003A0006F7360640E943B010895CF92DF92EF92D9
:1003B000FF920F931F93CF93DF937C016B01D42F98
:1003C000122F602F0E94D001C0E0CD1748F4F60133
:1003D000EC0FF11D6081C7010E94B501CF5FF5CF21
:1003E000612F6068C7010E943B01602F669566958A
:1003F0006695C7010E94B501DF91CF911F910F91C2
:10040000FF90EF90DF90CF900895019739F46F3F00
:100410007F4F21F480E190E20E945601089500E0B0
:1004200020E048E068E070E280E190E20E94D501BF
:1004300008E028E248E060E070E280E190E20E949B
:10044000D501FFCF6FEF7FEF81E090E00E940502C2
:100450000895EE0FFF1F0590F491E02D0994F89494
:02046000FFCFCC
:10046200000A0A00110E0E00000A0A00110E000016
:00000001FF
