:100000000C94FF000C9427010C9427010C942701F9
:100010000C9427010C9427010C9427010C942701C0
:100020000C9427010C9427010C9427010C942701B0
:100030000C9427010C9427010C9427010C942701A0
:100040000C9427010C9427010C9427010C94270190
:100050000C9427010C9427010C9427010C94270180
:100060000C9427010C9427010C9427010C94270170
:100070000C9427010C9427010C9427010C94270160
:100080000C9427010C9427010C9427010C94270150
:100090000C9427010C9427010C9427010C94270140
:1000A0000C9427010C9427010C9427010C94270130
:1000B0000C9427010C9427010C9427010C94270120
:1000C0000C9427010C9427010C9427010C94270110
:1000D0000C9427010C9427010C9427010C94270100
:1000E0000C9427010C9427010C9427010C942701F0
:1000F0000C9427010C9427010C9427010C942701E0
:100100000C9427010C9427010C9427010C942701CF
:100110000C9427010C9427010C9427010C942701BF
:100120000C9427010C9427010C9427010C942701AF
:100130000C9427010C9427010C9427010C9427019F
:100140000C9427010C9427010C9427010C9427018F
:100150000C9427010C9427010C9427010C9427017F
:100160000C9427010C9427010C9427010C9427016F
:100170000C9427010C9427010C9427010C9427015F
:100180000C9427010C9427010C9427010C9427014F
:100190000C9427010C9427010C9427010C9427013F
:1001A0000C9427010C9427010C9427010C9427012F
:1001B0000C9427010C9427010C9427010C9427011F
:1001C0000C9427010C9427010C9427010C9427010F
:1001D0000C9427010C9427010C9427010C942701FF
:1001E0000C9427010C9427010C9427010C942701EF
:1001F0000C9427010C9427010C942701640211240C
:100200001FBECFEFCDBFD7E2DEBF10E2A0E0B0E26D
:10021000E6EEF4E002C005900D92A030B107D9F7E8
:1002200020E2A0E0B0E201C01D92A130B207E1F7E8
:1002300010E0CFEFD0E004C02197FE010E946B02D6
:10024000CE3FD107C9F70E9439020C9471020C9479
:1002500000008FEF8093060621E080E8882351F0AC
:10026000922F962311F08093050690E0959587953F
:10027000220FF4CF0895CF93DF93C6E2D6E021E0BA
:1002800028830E94290186E08A95F1F700C082E068
:100290008093250696E09A95F1F700C0888386E062
:1002A0008A95F1F700C0DF91CF910895CF93DF9346
:1002B000EC018FEF80930006809320068FE493EC8F
:1002C0000197F1F700C0000068E3CE010E943B01F6
:1002D00083EC99E00197F1F700C0000068E3CE01DC
:1002E0000E943B0199E49A95F1F7000068E3CE0182
:1002F0000E943B0181E28A95F1F7000068E3CE019C
:100300000E943B0191E29A95F1F7000068E0CE016E
:100310000E943B0181E28A95F1F7000061E0CE0185
:100320000E943B0187EE93E00197F1F700C00000C7
:1003300066E0CE010E943B0191E29A95F1F7000040
:1003400062E0CE010E943B0187EE93E00197F1F756
:1003500000C000006FE0CE010E943B0191E29A953F
:10036000F1F70000DF91CF910895CF93DF93C5E2BD
:10037000D6E021E028830E94290186E08A95F1F7E2
:1003800000C082E0888396E09A95F1F700C08093E0
:10039000260686E08A95F1F700C0DF91CF91089597
:1003A00061E00E943B0187EE93E00197F1F700C006
:1003B00000000895EF92FF920F931F93CF93DF9366
:1003C000CDB7DEB76097CDBFDEBF7C0120E030E067
:1003D000042F10E020173107ECF4C901880F991F92
:1003E000FB01E20FF31F5081E1E0F0E0EC0FFD1F95
:1003F000E80FF91FA52FAF70A0830196E1E0F0E0B0
:10040000EC0FFD1FE80FF91F52955F7050832F5FAF
:100410003F4FDECF000F111F015011091123ACF027
:10042000E1E0F0E0EC0FFD1FE00FF11F60816A30AA
:1004300028F4605DC7010E94B50104C0695CC70172
:100440000E94B50101501109E9CF6096CDBFDEBF12
:10045000DF91CF911F910F91FF90EF900895019739
:1004600039F46F3F7F4F21F480E090E20E94560103
:100470000895CF93DF9300D000D0CDB7DEB71982B7
:100480001A821B821C8244E0BE016F5F7F4F80E0B6
:1004900090E20E94DA0189819A81AB81BC81019648
:1004A000A11DB11D89839A83AB83BC832FE38DE0AB
:1004B00093E0215080409040E1F700C0000080E0D0
:1004C00090E20E94D001DFCF6FEF7FEF81E090E0FC
:1004D0000E942F020895EE0FFF1F0590F491E02D6A
:0604E0000994F894FFCF1F
:00000001FF
