S0100000446973706C6179312E737265630D
S11300000C94FF000C9427010C9427010C942701F5
S11300100C9427010C9427010C9427010C942701BC
S11300200C9427010C9427010C9427010C942701AC
S11300300C9427010C9427010C9427010C9427019C
S11300400C9427010C9427010C9427010C9427018C
S11300500C9427010C9427010C9427010C9427017C
S11300600C9427010C9427010C9427010C9427016C
S11300700C9427010C9427010C9427010C9427015C
S11300800C9427010C9427010C9427010C9427014C
S11300900C9427010C9427010C9427010C9427013C
S11300A00C9427010C9427010C9427010C9427012C
S11300B00C9427010C9427010C9427010C9427011C
S11300C00C9427010C9427010C9427010C9427010C
S11300D00C9427010C9427010C9427010C942701FC
S11300E00C9427010C9427010C9427010C942701EC
S11300F00C9427010C9427010C9427010C942701DC
S11301000C9427010C9427010C9427010C942701CB
S11301100C9427010C9427010C9427010C942701BB
S11301200C9427010C9427010C9427010C942701AB
S11301300C9427010C9427010C9427010C9427019B
S11301400C9427010C9427010C9427010C9427018B
S11301500C9427010C9427010C9427010C9427017B
S11301600C9427010C9427010C9427010C9427016B
S11301700C9427010C9427010C9427010C9427015B
S11301800C9427010C9427010C9427010C9427014B
S11301900C9427010C9427010C9427010C9427013B
S11301A00C9427010C9427010C9427010C9427012B
S11301B00C9427010C9427010C9427010C9427011B
S11301C00C9427010C9427010C9427010C9427010B
S11301D00C9427010C9427010C9427010C942701FB
S11301E00C9427010C9427010C9427010C942701EB
S11301F00C9427010C9427010C942701C1021124AB
S11302001FBECFEFCDBFD7E2DEBF10E2A0E0B0E269
S1130210E0EAF5E002C005900D92A632B107D9F7E5
S113022020E2A6E2B0E201C01D92A732B207E1F7D4
S113023010E0CFEFD0E004C02197FE010E94C80275
S1130240CE3FD107C9F70E9480020C94CE020C94D1
S113025000008FEF8093060621E080E8882351F0A8
S1130260922F962311F08093050690E0959587953B
S1130270220FF4CF0895CF93DF93C6E2D6E021E0B6
S113028028830E94290186E08A95F1F700C082E064
S11302908093250696E09A95F1F700C0888386E05E
S11302A08A95F1F700C0DF91CF910895CF93DF9342
S11302B0EC018FEF80930006809320068FE493EC8B
S11302C00197F1F700C0000068E3CE010E943B01F2
S11302D083EC99E00197F1F700C0000068E3CE01D8
S11302E00E943B0199E49A95F1F7000068E3CE017E
S11302F00E943B0181E28A95F1F7000068E3CE0198
S11303000E943B0191E29A95F1F7000068E0CE016A
S11303100E943B0181E28A95F1F7000061E0CE0181
S11303200E943B0187EE93E00197F1F700C00000C3
S113033066E0CE010E943B0191E29A95F1F700003C
S113034062E0CE010E943B0187EE93E00197F1F752
S113035000C000006FE0CE010E943B0191E29A953B
S1130360F1F70000DF91CF910895CF93DF93C5E2B9
S1130370D6E021E028830E94290186E08A95F1F7DE
S113038000C082E0888396E09A95F1F700C08093DC
S1130390260686E08A95F1F700C0DF91CF91089593
S11303A0EF92FF920F931F93CF937C018B01C0E0D8
S11303B0F801EC0FF11D6081662329F0C7010E944A
S11303C0B501CF5FF5CFCF911F910F91FF90EF90C3
S11303D00895413049F42FEF260F203128F4622F7D
S11303E060680E943B010EC0423049F42FEF260F93
S11303F0203128F4615C60680E943B0103C060E81E
S11304000E943B018AE18A95F1F700C0089561E0FA
S11304100E943B0187EE93E00197F1F700C00000D2
S11304200895019739F46F3F7F4F21F486E290E2FB
S11304300E945601089542E060E186E290E20E9443
S1130440E90165E386E290E20E94B5012FE78AE1C3
S113045096E0215080409040E1F700C0000042E067
S113046060E186E290E20E94E90164E386E290E2C0
S11304700E94B5012FE78AE196E021508040904028
S1130480E1F700C0000042E060E186E290E20E94F1
S1130490E90163E386E290E20E94B5012FE78AE175
S11304A096E0215080409040E1F700C0000042E017
S11304B060E186E290E20E94E90162E386E290E272
S11304C00E94B5012FE78AE196E0215080409040D8
S11304D0E1F700C0000042E060E186E290E20E94A1
S11304E0E90161E386E290E20E94B5012FE78AE127
S11304F096E0215080409040E1F700C0000008954C
S113050041E062E086E290E20E94E90167E170E284
S113051086E290E20E94D00142E065E086E290E249
S11305200E94E9016EE070E286E290E20E94D0014E
S11305300E941B0286E290E20E94070241E062E010
S113054086E290E20E94E90160E070E286E290E2D5
S11305500E94D0012FEF84E39CE021508040904022
S1130560E1F700C0000086E290E20E9407022FEF4C
S113057084E39CE0215080409040E1F700C00000FB
S1130580BFCF6FEF7FEF81E090E00E9411020895EA
S1130590EE0FFF1F0590F491E02D0994F894FFCF1E
S11305A0436C65617220446973706C6179004645DF
S11305B031392D30384200506176656C2042657ABD
S10905C064656C65760021
S9030000FC
