:100000000C94FF000C9427010C9427010C942701F9
:100010000C9427010C9427010C9427010C942701C0
:100020000C9427010C9427010C9427010C942701B0
:100030000C9427010C9427010C9427010C942701A0
:100040000C9427010C9427010C9427010C94270190
:100050000C9427010C9427010C9427010C94270180
:100060000C9427010C9427010C9427010C94270170
:100070000C9427010C9427010C9427010C94270160
:100080000C9427010C9427010C9427010C94270150
:100090000C9427010C9427010C9427010C94270140
:1000A0000C9427010C9427010C9427010C94270130
:1000B0000C9427010C9427010C9427010C94270120
:1000C0000C9427010C9427010C9427010C94270110
:1000D0000C9427010C9427010C9427010C94270100
:1000E0000C9427010C9427010C9427010C942701F0
:1000F0000C9427010C9427010C9427010C942701E0
:100100000C9427010C9427010C9427010C942701CF
:100110000C9427010C9427010C9427010C942701BF
:100120000C9427010C9427010C9427010C942701AF
:100130000C9427010C9427010C9427010C9427019F
:100140000C9427010C9427010C9427010C9427018F
:100150000C9427010C9427010C9427010C9427017F
:100160000C9427010C9427010C9427010C9427016F
:100170000C9427010C9427010C9427010C9427015F
:100180000C9427010C9427010C9427010C9427014F
:100190000C9427010C9427010C9427010C9427013F
:1001A0000C9427010C9427010C9427010C9427012F
:1001B0000C9427010C9427010C9427010C9427011F
:1001C0000C9427010C9427010C9427010C9427010F
:1001D0000C9427010C9427010C9427010C942701FF
:1001E0000C9427010C9427010C9427010C942701EF
:1001F0000C9427010C9427010C9427012A02112446
:100200001FBECFEFCDBFD7E2DEBF10E2A0E0B0E26D
:10021000E2E7F4E002C005900D92A831B107D9F7EA
:1002200020E2A8E1B0E201C01D92A931B207E1F7D6
:1002300010E0CFEFD0E004C02197FE010E94310210
:10024000CE3FD107C9F70E9411020C9437020C94DB
:1002500000008FEF8093060621E080E8882351F0AC
:10026000922F962311F08093050690E0959587953F
:10027000220FF4CF0895CF93DF93C6E2D6E021E0BA
:1002800028830E94290186E08A95F1F700C082E068
:100290008093250696E09A95F1F700C0888386E062
:1002A0008A95F1F700C0DF91CF910895CF93DF9346
:1002B000EC018FEF80930006809320068FE493EC8F
:1002C0000197F1F700C0000068E3CE010E943B01F6
:1002D00083EC99E00197F1F700C0000068E3CE01DC
:1002E0000E943B0199E49A95F1F7000068E3CE0182
:1002F0000E943B0181E28A95F1F7000068E3CE019C
:100300000E943B0191E29A95F1F7000068E0CE016E
:100310000E943B0181E28A95F1F7000061E0CE0185
:100320000E943B0187EE93E00197F1F700C00000C7
:1003300066E0CE010E943B0191E29A95F1F7000040
:1003400062E0CE010E943B0187EE93E00197F1F756
:1003500000C000006FE0CE010E943B0191E29A953F
:10036000F1F70000DF91CF910895CF93DF93C5E2BD
:10037000D6E021E028830E94290186E08A95F1F7E2
:1003800000C082E0888396E09A95F1F700C08093E0
:10039000260686E08A95F1F700C0DF91CF91089597
:1003A000EF92FF920F931F93CF937C018B01C0E0DC
:1003B000F801EC0FF11D6081662329F0C7010E944E
:1003C000B501CF5FF5CFCF911F910F91FF90EF90C7
:1003D0000895413049F42FEF260F203128F4622F81
:1003E00060680E943B010EC0423049F42FEF260F97
:1003F000203128F4615C60680E943B0103C060E822
:100400000E943B018AE18A95F1F700C008950197A7
:1004100039F46F3F7F4F21F488E190E20E9456014A
:10042000089541E062E088E190E20E94E90169E01C
:1004300070E288E190E20E94D00142E065E088E14C
:1004400090E20E94E90160E070E288E190E20E949F
:10045000D001FFCF6FEF7FEF81E090E00E940702B5
:100460000895EE0FFF1F0590F491E02D0994F89484
:02047000FFCFBC
:10047200464531392D30384200506176656C204254
:08048200657A64656C65760083
:00000001FF
