:100000000C94FF000C941C010C941C010C941C011A
:100010000C941C010C941C010C941C010C941C01EC
:100020000C941C010C941C010C941C010C941C01DC
:100030000C941C010C941C010C941C010C941C01CC
:100040000C941C010C941C010C941C010C941C01BC
:100050000C941C010C941C010C941C010C941C01AC
:100060000C941C010C941C010C941C010C941C019C
:100070000C941C010C941C010C941C010C941C018C
:100080000C941C010C941C010C941C010C941C017C
:100090000C941C010C941C010C941C010C941C016C
:1000A0000C941C010C941C010C941C010C941C015C
:1000B0000C941C010C941C010C941C010C941C014C
:1000C0000C941C010C941C010C941C010C941C013C
:1000D0000C941C010C941C010C941C010C941C012C
:1000E0000C941C010C941C010C941C010C941C011C
:1000F0000C941C010C941C010C941C010C941C010C
:100100000C941C010C941C010C941C010C941C01FB
:100110000C941C010C941C010C941C010C941C01EB
:100120000C941C010C941C010C941C010C941C01DB
:100130000C941C010C941C010C941C010C941C01CB
:100140000C941C010C941C010C941C010C941C01BB
:100150000C941C010C941C010C941C010C941C01AB
:100160000C941C010C941C010C941C010C941C019B
:100170000C941C010C941C010C941C010C941C018B
:100180000C941C010C941C010C941C010C941C017B
:100190000C941C010C941C010C941C010C941C016B
:1001A0000C941C010C941C010C941C010C941C015B
:1001B0000C941C010C941C010C941C010C941C014B
:1001C0000C941C010C941C010C941C010C941C013B
:1001D0000C941C010C941C010C941C010C941C012B
:1001E0000C941C010C941C010C941C010C941C011B
:1001F0000C941C010C941C010C941C01C5041124CA
:100200001FBECFEFCDBFD7E2DEBF20E2A0E0B0E25D
:1002100001C01D92A130B207E1F710E0CFEFD0E0AE
:1002200004C02197FE010E940D05CE3FD107C9F7FA
:100230000E947D040C9422050C9400008FEF8093A3
:10024000060621E080E8882351F0922F962311F0D2
:100250008093050690E095958795220FF4CF089539
:10026000CF93DF93C6E2D6E021E028830E941E01EF
:1002700086E08A95F1F700C082E08093250696E03B
:100280009A95F1F700C0888386E08A95F1F700C05F
:10029000DF91CF910895CF93DF93EC018FEF80939F
:1002A0000006809320068FE493EC0197F1F700C0DD
:1002B000000068E3CE010E94300183EC99E00197D1
:1002C000F1F700C0000068E3CE010E94300199E41C
:1002D0009A95F1F7000068E3CE010E94300181E2B7
:1002E0008A95F1F7000068E3CE010E94300191E2A7
:1002F0009A95F1F7000068E0CE010E94300181E29A
:100300008A95F1F7000061E0CE010E94300187EE8E
:1003100093E00197F1F700C0000066E0CE010E9473
:10032000300191E29A95F1F7000062E0CE010E945F
:10033000300187EE93E00197F1F700C000006FE015
:10034000CE010E94300191E29A95F1F70000DF9111
:10035000CF910895CF93DF93C5E2D6E021E02883C3
:100360000E941E0186E08A95F1F700C082E0888332
:1003700096E09A95F1F700C08093260686E08A956C
:10038000F1F700C0DF91CF910895413049F42FEF8C
:10039000260F203128F4622F60680E9430010EC0C1
:1003A000423049F42FEF260F203128F4615C606859
:1003B0000E94300103C060E80E9430018AE18A9502
:1003C000F1F700C0089561E00E94300187EE93E0EC
:1003D0000197F1F700C000000895EF92FF920F938C
:1003E0001F93CF93DF9300D01F92CDB7DEB77C0170
:1003F00020E030E000E061110CC081E0611101C03B
:1004000080E0811120C081E0011101C080E08111F4
:100410001AC0E1E0F0E0EC0FFD1FE20FF31F8DECDE
:10042000689F812D1124869586958695482F440FC7
:10043000942F990F990F940F691B6083682F0F5F9A
:100440002F5F3F4FD8CF10E001501109112374F0F6
:10045000E1E0F0E0EC0FFD1FE00FF11F6081605D57
:10046000C7010E94AA0101501109F0CF2396CDBF08
:10047000DEBFDF91CF911F910F91FF90EF90089514
:10048000EF92FF920F931F93CF93DF93CDB7DEB719
:100490002597CDBFDEBF8C01AB01E0E0F0E0E12CA1
:1004A0004115510569F481E04115510509F480E0D9
:1004B000811135C081E0E11001C080E081112FC0C1
:1004C0009A01ADECBCEC0E94130596958795969524
:1004D0008795969587959C01220F331F880F991F4A
:1004E000880F991F880F991F820F931F9A01281B4D
:1004F000390BA1E0B0E0AC0FBD1FAE0FBF1F2C93B6
:100500009A01ADECBCEC0E941305AC0156954795E1
:100510005695479556954795E3943196C1CFF12C62
:1005200031E0E31AF108FF207CF0E1E0F0E0EC0FAD
:10053000FD1FEE0DFF1D6081605DC8010E94AA01D4
:1005400081E0E81AF108EFCF2596CDBFDEBFDF913D
:10055000CF911F910F91FF90EF900895EF92FF922E
:100560000F931F93CF93DF9300D01F92CDB7DEB7C9
:100570007C018FE7860F8F37D8F5162F11956DE226
:10058000C7010E94AA0120E030E000E01123E1F061
:10059000E1E0F0E0EC0FFD1FE20FF31F87E6180229
:1005A000812D11248595859517FD8395482F440F3E
:1005B000942F990F990F940F612F691B6083182F47
:1005C0000F5F2F5F3F4FE2CF10E001501109112361
:1005D0000CF487C0E1E0F0E0EC0FFD1FE00FF11F2D
:1005E0006081605DC7010E94AA0101501109EFCF2F
:1005F0006038C1F56DE2C7010E94AA0140E050E0F9
:1006000090E800E09923D1F0E1E0F0E0EC0FFD1F6D
:10061000E40FF51F8DEC989F812D1124869586950A
:100620008695382F330F232F220F220F230F921B73
:100630009083982F0F5F4F5F5F4FE4CF10E0015022
:10064000110911230CF44DC0E1E0F0E0EC0FFD1FA7
:10065000E00FF11F6081605DC7010E94AA01015097
:100660001109EFCF20E030E000E061110CC081E023
:10067000611101C080E0811121C081E0011101C040
:1006800080E081111BC0E1E0F0E0EC0FFD1FE20F04
:10069000F31F87E66802812D11248595859567FDF6
:1006A0008395482F440F942F990F990F940F691B2E
:1006B0006083682F0F5F2F5F3F4FD7CF10E001504F
:1006C0001109112374F0E1E0F0E0EC0FFD1FE00FE1
:1006D000F11F6081605DC7010E94AA0101501109EC
:1006E000F0CF2396CDBFDEBFDF91CF911F910F9149
:1006F000FF90EF9008958F929F92BF92CF92DF92DA
:10070000EF92FF920F931F93CF93DF93CDB7DEB796
:100710002A97CDBFDEBF8C01CB01BA016B017C01F2
:1007200021E0C21AD108E10820E8F20A2FEFC21630
:10073000D206E2062FE7F20608F042C0CC24DD2400
:100740007601C61AD70AE80AF90A6DE2C8010E94C2
:10075000AA01812C912CB12CC114D104E104F10423
:10076000C1F0C701B6012AE030E040E050E00E944D
:10077000EE04E1E0F0E0EC0FFD1FE80DF91D6083F1
:10078000C22ED32EE42EF52EB3948FEF881A980A3A
:10079000E3CFEB2CF12C21E0E21AF108FF200CF45E
:1007A00093C0E1E0F0E0EC0FFD1FEE0DFF1D608156
:1007B000605DC8010E94AA0181E0E81AF108EECF4D
:1007C00061157105810520E89207E1F56DE2C80128
:1007D0000E94AA01C12CD12C60E070E080E090E87A
:1007E000E12C6115710581059105B1F02AE030E039
:1007F00040E050E00E94CC04E1E0F0E0EC0FFD1F8F
:10080000EC0DFD1D6083622F732F842F952FE394D1
:100810002FEFC21AD20AE5CFF12C81E0E81AF108D5
:10082000FF200CF451C0E1E0F0E0EC0FFD1FEE0DF5
:10083000FF1D6081605DC8010E94AA0121E0E21AEB
:10084000F108EECFC12CD12CE12C61157105810589
:10085000910579F421E0611571058105910509F48F
:1008600020E021111CC021E0E11001C020E0211195
:1008700016C02AE030E040E050E00E94EE04E1E0E3
:10088000F0E0EC0FFD1FEC0DFD1D6083622F732F58
:10089000842F952FE3942FEFC21AD20AD6CFF12CD2
:1008A00081E0E81AF108FF207CF0E1E0F0E0EC0FD5
:1008B000FD1FEE0DFF1D6081605DC8010E94AA0151
:1008C00021E0E21AF108EFCF2A96CDBFDEBFDF911B
:1008D000CF911F910F91FF90EF90DF90CF90BF903D
:1008E0009F908F900895019739F46F3F7F4F21F4C7
:1008F00080E090E20E944B010895C12CD12C76013A
:10090000D0E000E010E0C0E080E090E20E94E3016F
:1009100041E061E080E090E20E94C5016C2F80E040
:1009200090E20E94ED0141E066E080E090E20E94EA
:10093000C501B80180E090E20E94400242E061E01F
:1009400080E090E20E94C5016D2F80E090E20E945D
:10095000AE0242E066E080E090E20E94C501B7018D
:10096000A60180E090E20E947B03CF5F0F5F1F4FE4
:10097000DF5F8FEFC81AD80AE80AF80A8FE493EC11
:100980000197F1F700C00000BFCF6FEF7FEF81E06C
:1009900090E00E9473040895A1E21A2EAA1BBB1BCB
:1009A000FD010DC0AA1FBB1FEE1FFF1FA217B3073B
:1009B000E407F50720F0A21BB30BE40BF50B661F51
:1009C000771F881F991F1A9469F760957095809515
:1009D00090959B01AC01BD01CF010895052E97FBB9
:1009E0001EF400940E94050557FD07D00E94CC0418
:1009F00007FC03D04EF40C940505509540953095B6
:100A000021953F4F4F4F5F4F08959095809570957A
:100A100061957F4F8F4F9F4F0895EE0FFF1F0590F9
:100A2000F491E02D0994A29FB001B39FC001A39F50
:100A3000700D811D1124911DB29F700D811D112417
:080A4000911D0895F894FFCF09
:00000001FF
