S0100000446973706C6179312E737265630D
S11300000C9457010C947F010C947F010C947F0194
S11300100C947F010C947F010C947F010C947F015C
S11300200C947F010C947F010C947F010C947F014C
S11300300C947F010C947F010C947F010C947F013C
S11300400C947F010C947F010C947F010C947F012C
S11300500C947F010C947F010C947F010C947F011C
S11300600C947F010C947F010C947F010C947F010C
S11300700C947F010C947F010C947F010C947F01FC
S11300800C947F010C947F010C947F010C947F01EC
S11300900C947F010C947F010C947F010C947F01DC
S11300A00C947F010C947F010C947F010C947F01CC
S11300B00C947F010C947F010C947F010C947F01BC
S11300C00C947F010C947F010C947F010C947F01AC
S11300D00C947F010C947F010C947F010C947F019C
S11300E00C947F010C947F010C947F010C947F018C
S11300F00C947F010C947F010C947F010C947F017C
S11301000C947F010C947F010C947F010C947F016B
S11301100C947F010C947F010C947F010C947F015B
S11301200C947F010C947F010C947F010C947F014B
S11301300C947F010C947F010C947F010C947F013B
S11301400C947F010C947F010C947F010C947F012B
S11301500C947F010C947F010C947F010C947F011B
S11301600C947F010C947F010C947F010C947F010B
S11301700C947F010C947F010C947F010C947F01FB
S11301800C947F010C947F010C947F010C947F01EB
S11301900C947F010C947F010C947F010C947F01DB
S11301A00C947F010C947F010C947F010C947F01CB
S11301B00C947F010C947F010C947F010C947F01BB
S11301C00C947F010C947F010C947F010C947F01AB
S11301D00C947F010C947F010C947F010C947F019B
S11301E00C947F010C947F010C947F010C947F018B
S11301F00C947F010C947F010C947F0162028E03A6
S11302008E038E038E038E038E038E038E038E0362
S11302108E038E038E038E038E038E0307038E03D9
S11302208E038E038E038E038E038E0344024902D3
S11302304E02530258025D0267026C02710276029A
S11302407B02800285028A028F02940299029E0236
S1130250A302A802AD02B202B702BC02C102C602E6
S1130260CB02D002D502DA02DF02E402E902EE0296
S1130270F302F802FD0202030C03110316031B032D
S1130280200325032A032F03340339033E034303C6
S113029048034D03520357035C03610366036B0376
S11302A0700375037A037F038403890342041124D2
S11302B01FBECFEFCDBFD7E2DEBF10E2A0E0B0E2B9
S11302C0E2EAF8E002C005900D92A236B107D9F730
S11302D020E2A2E6B0E201C01D92A336B207E1F724
S11302E011E0C7E5D1E004C02197FE010E94490452
S11302F0C635D107C9F70E94CB030C944F040C9464
S113030000008FEF8093060621E080E8882351F0F7
S1130310922F962311F08093050690E0959587958A
S1130320220FF4CF0895CF93DF93C6E2D6E021E005
S113033028830E94810186E08A95F1F700C082E05B
S11303408093250696E09A95F1F700C0888386E0AD
S11303508A95F1F700C0DF91CF910895CF93DF9391
S1130360EC018FEF80930006809320068FE493ECDA
S11303700197F1F700C0000068E3CE010E949301E9
S113038083EC99E00197F1F700C0000068E3CE0127
S11303900E94930199E49A95F1F7000068E3CE0175
S11303A00E94930181E28A95F1F7000068E3CE018F
S11303B00E94930191E29A95F1F7000068E0CE0162
S11303C00E94930181E28A95F1F7000061E0CE0179
S11303D00E94930187EE93E00197F1F700C00000BB
S11303E066E0CE010E94930191E29A95F1F7000034
S11303F062E0CE010E94930187EE93E00197F1F74A
S113040000C000006FE0CE010E94930191E29A9532
S1130410F1F70000DF91CF910895CF93DF93C5E208
S1130420D6E021E028830E94810186E08A95F1F7D5
S113043000C082E0888396E09A95F1F700C080932B
S1130440260686E08A95F1F700C0DF91CF910895E2
S1130450FF920F931F93CF93DF938C01EB01F12C49
S1130460FE01EF0DF11D6081662309F45CC1862F46
S113047090E0FC01E85AF109E835F10508F04EC1B5
S1130480E250FF4F0C94490461E4C8010E940D023C
S113049048C160EAC8010E940D0243C162E4C80178
S11304A00E940D023EC161EAC8010E940D0239C1D9
S11304B060EEC8010E940D0234C165E4C8010E94C7
S11304C00D022FC162EAC8010E940D022AC163EA2B
S11304D0C8010E940D0225C164EAC8010E940D02F0
S11304E020C165EAC8010E940D021BC166EAC80169
S11304F00E940D0216C16BE4C8010E940D0211C1D5
S113050067EAC8010E940D020CC16DE4C8010E9493
S11305100D0207C168E4C8010E940D0202C16FE424
S1130520C8010E940D02FDC068EAC8010E940D02C4
S1130530F8C060E5C8010E940D02F3C063E4C8017D
S11305400E940D02EEC064E5C8010E940D02E9C0DC
S113055069EAC8010E940D02E4C06AEAC8010E9467
S11305600D02DFC068E5C8010E940D02DAC061EE29
S1130570C8010E940D02D5C06BEAC8010E940D0299
S1130580D0C06CEAC8010E940D02CBC062EEC80163
S11305900E940D02C6C06DEAC8010E940D02C1C0CE
S11305A06EEAC8010E940D02BCC062E6C8010E9446
S11305B00D02B7C06FEAC8010E940D02B2C060EB21
S11305C0C8010E940D02ADC061EBC8010E940D027A
S11305D0A8C061E6C8010E940D02A3C062EBC80175
S11305E00E940D029EC063EBC8010E940D0299C0D7
S11305F064EBC8010E940D0294C063EEC8010E941E
S11306000D028FC065E6C8010E940D028AC065EB29
S1130610C8010E940D0285C066EBC8010E940D024C
S113062080C067EBC8010E940D027BC068EBC80163
S11306300E940D0276C069EBC8010E940D0271C0D0
S11306406AEBC8010E940D026CC06BEBC8010E94EA
S11306500D0267C06CEBC8010E940D0262C06DEB15
S1130660C8010E940D025DC06FE6C8010E940D0220
S113067058C06EEBC8010E940D0253C060E7C80168
S11306800E940D024EC063E6C8010E940D0249C0DB
S11306906FEBC8010E940D0244C069E7C8010E94C3
S11306A00D023FC064EEC8010E940D023AC068E723
S11306B0C8010E940D0235C065EEC8010E940D02FA
S11306C030C060ECC8010E940D022BC061ECC8016F
S11306D00E940D0226C066EEC8010E940D0221C0D0
S11306E062ECC8010E940D021CC063ECC8010E94A8
S11306F00D0217C064ECC8010E940D0212C065EC23
S1130700C8010E940D020DC066ECC8010E940D02D2
S113071008C067ECC8010E940D0203C0C8010E9412
S11307200D02F3949DCEDF91CF911F910F91FF9015
S11307300895413049F42FEF260F203128F4622F19
S113074060680E9493010EC0423049F42FEF260FD7
S1130750203128F4615C60680E94930103C060E862
S11307600E9493018AE18A95F1F700C0089561E03F
S11307700E94930187EE93E00197F1F700C0000017
S11307800895019739F46F3F7F4F21F482E690E298
S11307900E94AE01089541E065E082E690E20E9485
S11307A099036FE070E282E690E20E94280242E040
S11307B062E082E690E20E94990360E070E282E6E1
S11307C090E20E9428022FE78FE492E121508040BA
S11307D09040E1F700C0000082E690E20E94B70377
S11307E060E570E282E690E20E94280242E061E065
S11307F082E690E20E9499036FE370E282E690E25F
S11308000E9428022FE784E89EE121508040904016
S1130810E1F700C0000082E690E20E94B7036EE2B6
S113082070E282E690E20E94280242E061E082E601
S113083090E20E9499036BE170E282E690E20E94EA
S113084028022FE784E89EE1215080409040E1F7A0
S113085000C0000082E690E20E94B70368E170E203
S113086082E690E20E9428022FEF84E39CE021506C
S113087080409040E1F700C0000082E690E20E94D0
S1130880B70389CF6FEF7FEF81E090E00E94C1034F
S11308900895EE0FFF1F0590F491E02D0994F8944C
S10508A0FFCF84
S11308A2D0D3D1D1CACEC3CE20DFC7DBCAC000CFDA
S11308B2D0CEC2C5D0CAC000FEFF00EEEFF0F1F206
S11308C2F3F4F5F6F7F8F9FAFBFCFDFEFF00DFE0BE
S11308D2E1E2E3E4E5B8E6E7E8E9EAEBECED00CFD0
S11308E2D0D1D2D3D4D5D6D7D8D9DADBDCDDDE0069
S11308F2C0C1C2C3C4C5A8C6C7C8C9CACBCCCDCEA1
S10509020000EF
S9030000FC
