:100000000C94FF000C9427010C9427010C942701F9
:100010000C9427010C9427010C9427010C942701C0
:100020000C9427010C9427010C9427010C942701B0
:100030000C9427010C9427010C9427010C942701A0
:100040000C9427010C9427010C9427010C94270190
:100050000C9427010C9427010C9427010C94270180
:100060000C9427010C9427010C9427010C94270170
:100070000C9427010C9427010C9427010C94270160
:100080000C9427010C9427010C9427010C94270150
:100090000C9427010C9427010C9427010C94270140
:1000A0000C9427010C9427010C9427010C94270130
:1000B0000C9427010C9427010C9427010C94270120
:1000C0000C9427010C9427010C9427010C94270110
:1000D0000C9427010C9427010C9427010C94270100
:1000E0000C9427010C9427010C9427010C942701F0
:1000F0000C9427010C9427010C9427010C942701E0
:100100000C9427010C9427010C9427010C942701CF
:100110000C9427010C9427010C9427010C942701BF
:100120000C9427010C9427010C9427010C942701AF
:100130000C9427010C9427010C9427010C9427019F
:100140000C9427010C9427010C9427010C9427018F
:100150000C9427010C9427010C9427010C9427017F
:100160000C9427010C9427010C9427010C9427016F
:100170000C9427010C9427010C9427010C9427015F
:100180000C9427010C9427010C9427010C9427014F
:100190000C9427010C9427010C9427010C9427013F
:1001A0000C9427010C9427010C9427010C9427012F
:1001B0000C9427010C9427010C9427010C9427011F
:1001C0000C9427010C9427010C9427010C9427010F
:1001D0000C9427010C9427010C9427010C942701FF
:1001E0000C9427010C9427010C9427010C942701EF
:1001F0000C9427010C9427010C9427010B02112465
:100200001FBECFEFCDBFD7E2DEBF10E2A0E0B0E26D
:10021000E4E3F4E002C005900D92AA30B107D9F7EB
:1002200020E2AAE0B0E201C01D92AB30B207E1F7D4
:1002300010E0CFEFD0E004C02197FE010E9412022F
:10024000CE3FD107C9F70E94FF010C9418020C940D
:1002500000008FEF8093060621E080E8882351F0AC
:10026000922F962311F08093050690E0959587953F
:10027000220FF4CF0895CF93DF93C6E2D6E021E0BA
:1002800028830E94290186E08A95F1F700C082E068
:100290008093250696E09A95F1F700C0888386E062
:1002A0008A95F1F700C0DF91CF910895CF93DF9346
:1002B000EC018FEF80930006809320068FE493EC8F
:1002C0000197F1F700C0000068E3CE010E943B01F6
:1002D00083EC99E00197F1F700C0000068E3CE01DC
:1002E0000E943B0199E49A95F1F7000068E3CE0182
:1002F0000E943B0181E28A95F1F7000068E3CE019C
:100300000E943B0191E29A95F1F7000068E0CE016E
:100310000E943B0181E28A95F1F7000061E0CE0185
:100320000E943B0187EE93E00197F1F700C00000C7
:1003300066E0CE010E943B0191E29A95F1F7000040
:1003400062E0CE010E943B0187EE93E00197F1F756
:1003500000C000006FE0CE010E943B0191E29A953F
:10036000F1F70000DF91CF910895CF93DF93C5E2BD
:10037000D6E021E028830E94290186E08A95F1F7E2
:1003800000C082E0888396E09A95F1F700C08093E0
:10039000260686E08A95F1F700C0DF91CF91089597
:1003A000019739F46F3F7F4F21F48AE090E20E9479
:1003B000560108958F73682F60648AE090E20E946E
:1003C0003B0108950F931F93CF938C0180E00E940F
:1003D000DA01C0E0C83050F4F801EC0FF11D608183
:1003E0008AE090E20E94B501CF5FF4CF60E88AE036
:1003F00090E20E943B01CF911F910F91089580E000
:1004000090E20E94E20160E08AE090E20E94B50181
:1004100080E090E008956FEF7FEF81E090E00E9430
:10042000D0010895EE0FFF1F0590F491E02D09947F
:04043000F894FFCF6E
:0A04340000000A00110E0000000095
:00000001FF
