S0100000446973706C6179312E737265630D
S11300000C94FF000C9427010C9427010C942701F5
S11300100C9427010C9427010C9427010C942701BC
S11300200C9427010C9427010C9427010C942701AC
S11300300C9427010C9427010C9427010C9427019C
S11300400C9427010C9427010C9427010C9427018C
S11300500C9427010C9427010C9427010C9427017C
S11300600C9427010C9427010C9427010C9427016C
S11300700C9427010C9427010C9427010C9427015C
S11300800C9427010C9427010C9427010C9427014C
S11300900C9427010C9427010C9427010C9427013C
S11300A00C9427010C9427010C9427010C9427012C
S11300B00C9427010C9427010C9427010C9427011C
S11300C00C9427010C9427010C9427010C9427010C
S11300D00C9427010C9427010C9427010C942701FC
S11300E00C9427010C9427010C9427010C942701EC
S11300F00C9427010C9427010C9427010C942701DC
S11301000C9427010C9427010C9427010C942701CB
S11301100C9427010C9427010C9427010C942701BB
S11301200C9427010C9427010C9427010C942701AB
S11301300C9427010C9427010C9427010C9427019B
S11301400C9427010C9427010C9427010C9427018B
S11301500C9427010C9427010C9427010C9427017B
S11301600C9427010C9427010C9427010C9427016B
S11301700C9427010C9427010C9427010C9427015B
S11301800C9427010C9427010C9427010C9427014B
S11301900C9427010C9427010C9427010C9427013B
S11301A00C9427010C9427010C9427010C9427012B
S11301B00C9427010C9427010C9427010C9427011B
S11301C00C9427010C9427010C9427010C9427010B
S11301D00C9427010C9427010C9427010C942701FB
S11301E00C9427010C9427010C9427010C942701EB
S11301F00C9427010C9427010C9427010B02112461
S11302001FBECFEFCDBFD7E2DEBF10E2A0E0B0E269
S1130210E4E3F4E002C005900D92A830B107D9F7E9
S113022020E2A8E0B0E201C01D92A930B207E1F7D4
S113023010E0CFEFD0E004C02197FE010E9412022B
S1130240CE3FD107C9F70E94FF010C9418020C9409
S113025000008FEF8093060621E080E8882351F0A8
S1130260922F962311F08093050690E0959587953B
S1130270220FF4CF0895CF93DF93C6E2D6E021E0B6
S113028028830E94290186E08A95F1F700C082E064
S11302908093250696E09A95F1F700C0888386E05E
S11302A08A95F1F700C0DF91CF910895CF93DF9342
S11302B0EC018FEF80930006809320068FE493EC8B
S11302C00197F1F700C0000068E3CE010E943B01F2
S11302D083EC99E00197F1F700C0000068E3CE01D8
S11302E00E943B0199E49A95F1F7000068E3CE017E
S11302F00E943B0181E28A95F1F7000068E3CE0198
S11303000E943B0191E29A95F1F7000068E0CE016A
S11303100E943B0181E28A95F1F7000061E0CE0181
S11303200E943B0187EE93E00197F1F700C00000C3
S113033066E0CE010E943B0191E29A95F1F700003C
S113034062E0CE010E943B0187EE93E00197F1F752
S113035000C000006FE0CE010E943B0191E29A953B
S1130360F1F70000DF91CF910895CF93DF93C5E2B9
S1130370D6E021E028830E94290186E08A95F1F7DE
S113038000C082E0888396E09A95F1F700C08093DC
S1130390260686E08A95F1F700C0DF91CF91089593
S11303A06F7360640E943B010895EF92FF920F9374
S11303B01F93CF938C017B0160E00E94D001C0E0C9
S11303C0C83048F4F701EC0FF11D6081C8010E94A8
S11303D0B501CF5FF5CF60E8C8010E943B01CF9122
S11303E01F910F91FF90EF900895019739F46F3F9B
S11303F07F4F21F488E090E20E945601089560E066
S113040070E288E090E20E94D50160E088E090E22A
S11304100E94B501FFCF6FEF7FEF81E090E00E9473
S1130420F5010895EE0FFF1F0590F491E02D099456
S1070430F894FFCF6A
S10B0434000A0A00110E000089
S9030000FC
